:020000040000FA
:100000000C945D000C9485000C9485000C94850084
:100010000C9485000C9485000C9485000C9485004C
:100020000C9485000C9485000C9485000C9485003C
:100030000C9485000C9485000C9485000C9485002C
:100040000C94B0040C9485000C947E040C94580419
:100050000C9485000C9485000C9485000C9485000C
:100060000C9485000C94850000000008000201003B
:100070000003040700000000000000000000000072
:10008000250028002B0000000000240027002A0083
:10009000040404040404040402020202020203032E
:1000A0000303030301020408102040800102040836
:1000B0001020010204081020FA0411241FBECFEF03
:1000C000D8E0DEBFCDBF22E0A2E6B1E001C01D92C4
:1000D000A233B207E1F711E0A0E0B1E0ECE0F9E112
:1000E00002C005900D92A236B107D9F710E0CDE518
:1000F000D0E004C02197FE010E94830ACC35D107CD
:10010000C9F70E9444050C94840C0C94000090E004
:10011000FC01EC55FF4F249180579F4FFC018491C7
:10012000882399F090E0880F991FFC01EA57FF4F50
:10013000A591B491FC01E458FF4F859194918FB73C
:10014000F894EC91E22BEC938FBF0895AF92BF929D
:10015000CF92DF92EF92FF920F931F93CF93DF9393
:100160006C017B018B01040F151FEB015E01AE18C2
:10017000BF08C017D10759F06991D601ED91FC91E4
:100180000190F081E02DC6010995892B79F7C50111
:10019000DF91CF911F910F91FF90EF90DF90CF9063
:1001A000BF90AF900895FC01538D448D252F30E012
:1001B000842F90E0821B930B541710F0CF96089574
:1001C00001970895FC01918D828D981761F0A28DA1
:1001D000AE0FBF2FB11D5D968C91928D9F5F9F7367
:1001E000928F90E008958FEF9FEF08952FB7F894C6
:1001F0008091750190917601A0917701B09178017D
:100200002FBF8093810190938201A0938301B093CB
:10021000840189E791E00E94E20097FF26C02FB792
:10022000F8948091750190917601A0917701B09139
:1002300078012FBF4091810150918201609183012B
:1002400070918401841B950BA60BB70B40917D0127
:1002500050917E0160917F01709180018417950714
:10026000A607B707B0F28FEF9FEF0895FC01918DBD
:10027000828D981731F0828DE80FF11D858D90E009
:1002800008958FEF9FEF0895FC01918D228D892FA6
:1002900090E0805C9F4F821B91098F73992708958E
:1002A00089E791E00E94440121E0892B09F420E0D4
:1002B000822F089580E090E0892B29F00E94500160
:1002C00081110C9400000895FC01A48DA80FB92F92
:1002D000B11DA35ABF4F2C91848D90E001968F736E
:1002E0009927848FA689B7892C93A089B1898C918D
:1002F000837080648C93938D848D981306C00288DC
:10030000F389E02D80818F7D80830895EF92FF92A5
:100310000F931F93CF93DF93EC0181E0888F9B8D28
:100320008C8D98131AC0E889F989808185FF15C0E2
:100330009FB7F894EE89FF896083E889F989808105
:100340008370806480839FBF81E090E0DF91CF91D4
:100350001F910F91FF90EF900895F62E0B8D10E0F6
:100360000F5F1F4F0F731127E02E8C8D8E110CC065
:100370000FB607FCFACFE889F989808185FFF5CFB0
:10038000CE010E946401F1CFEB8DEC0FFD2FF11D2A
:10039000E35AFF4FF0829FB7F8940B8FEA89FB89ED
:1003A00080818062CFCFCF93DF93EC01888D88234B
:1003B000B9F0AA89BB89E889F9898C9185FD03C0C8
:1003C000808186FD0DC00FB607FCF7CF8C9185FFAD
:1003D000F2CF808185FFEDCFCE010E946401E9CF8D
:1003E000DF91CF91089590E0FC01E859FF4F2491EF
:1003F000FC01EC55FF4F3491FC01E057FF4FE491B5
:10040000EE23C9F0222339F0233001F1A8F4213082
:1004100019F1223029F1F0E0EE0FFF1FE458FF4FF1
:10042000A591B4918FB7F894EC91611126C03095E5
:100430003E233C938FBF08952730A9F02830C9F0A0
:10044000243049F7809180008F7D03C08091800027
:100450008F7780938000DFCF84B58F7784BDDBCF2B
:1004600084B58F7DFBCF8091B0008F778093B000F3
:10047000D2CF8091B0008F7DF9CF3E2BDACF089597
:1004800090E080E00895CF93DF93EC0160E08E81EF
:100490000E94F30161E08E810E94F30160E08E8191
:1004A0000E94F3018BE891E00197F1F7DF91CF9182
:1004B0000895CF92DF92EF92FF920F931F93CF9305
:1004C000DF936C017C0187E0E80EF11CD0E0C0E016
:1004D000062F10E0B8010C2E02C0759567950A949E
:1004E000E2F76170F70181917F010E94F30121968B
:1004F000C430D10579F7C601DF91CF911F910F91DB
:10050000FF90EF90DF90CF900C944302CF92DF9258
:10051000EF92FF920F931F93CF93DF93EC01F62E90
:10052000642F8C810E94F3018D818F3F19F060E070
:100530000E94F3010F2D10E08F8584FF25C06E010E
:1005400087E0C80ED11CF12CE12CB8010E2C02C0A2
:10055000759567950A94E2F76170F60181916F01D4
:100560000E94F301FFEFEF1AFF0A88E0E816F1049A
:1005700061F7CE01DF91CF911F910F91FF90EF9026
:10058000DF90CF900C944302B80184E07595679595
:100590008A95E1F7CE010E9459026F2DCE01DF91BD
:1005A000CF911F910F91FF90EF90DF90CF900C941F
:1005B000590240E0682F86E192E00C948602CF93C6
:1005C000DF93823029F49091250298609093250260
:1005D0008093290210922A0280E480932B0280E10A
:1005E00080932C0280E580932D0280911A020E9454
:1005F000870080911B028F3F11F00E94870080913D
:100600001C020E948700C6E1D2E09E0126513240C2
:100610008091250284FD0AC084E090E0219628178D
:1006200039073CF48E810E948700EFCF88E090E08C
:10063000F5CF8BE39DE00197F1F760E080911A021E
:100640000E94F30160E080911C020E94F3018091FE
:100650001B028F3F19F060E00E94F3018091250298
:1006600084FD39C063E086E192E00E945902CBE448
:10067000D6E4CE010197F1F763E086E192E00E94B3
:1006800059022197F1F763E086E192E00E94590256
:1006900083E592E00197F1F762E086E192E00E9443
:1006A00059028091250280620E94D90284E08093E1
:1006B00026028CE00E94D90281E00E94D9028BE3DD
:1006C0009FE10197F1F782E08093270286E0DF91B6
:1006D000CF910C94D90280620E94D9028BE496E4F7
:1006E0000197F1F78091250280620E94D90283E58B
:1006F00092E00197F1F78091250280620E94D90271
:10070000D0CF41E00E94860281E090E00895FB0195
:1007100001900020E9F73197AF01461B570BDC0130
:10072000ED91FC910280F381E02D09944F925F924C
:100730006F927F92AF92BF92CF92DF92EF92FF9231
:100740000F931F93CF93DF93CDB7DEB7A1970FB66B
:10075000F894DEBF0FBECDBF5C016A017B01F7FEDE
:1007600047C0DC01ED91FC910190F081E02D6DE23C
:1007700009958C0122273327A9012C193D094E091F
:100780005F0919A2FE01B1967F019AE0492E512C12
:10079000612C712CCA01B901A30192010E94420A85
:1007A000605DD7016E937D0121153105410551052D
:1007B00089F790E080E0109721F0BD01C5010E940B
:1007C0008703800F911FA1960FB6F894DEBF0FBE6E
:1007D000CDBFDF91CF911F910F91FF90EF90DF90F0
:1007E000CF90BF90AF907F906F905F904F900895A3
:1007F000AB01960119A28E010F5D1F4F8AE0C82E32
:10080000D12CE12CF12CCA01B901A70196010E945B
:10081000420A605DF80162938F012115310541059F
:10082000510589F790E080E0309769F2BF01C5017A
:100830000E948703C8CFFC0124813581232B39F422
:1008400021E0FB018081882349F020E007C08081FE
:1008500091810E94740C21E0892BB9F7822F0895B1
:100860000F931F93CF93DF93EC01888199810097B9
:1008700059F02A813B812617370730F081E0DF915C
:10088000CF911F910F9108958B016F5F7F4F0E9451
:10089000AE0B009759F0998388831B830A832C81C0
:1008A0003D81232B59F7FC011082E8CF80E0E7CF90
:1008B0001F920F920FB60F9211242F933F934F93D5
:1008C0005F936F937F938F939F93AF93BF93EF93B8
:1008D000FF9389E791E00E946401FF91EF91BF913E
:1008E000AF919F918F917F916F915F914F913F91C8
:1008F0002F910F900FBE0F901F9018951F920F927F
:100900000FB60F9211242F938F939F93EF93FF9322
:10091000E0918901F0918A018081E0918F01F0914D
:10092000900182FD1BC09081809192018F5F8F7337
:1009300020919301821741F0E0919201F0E0E75895
:10094000FE4F958F80939201FF91EF919F918F9130
:100950002F910F900FBE0F901F9018958081F4CFAC
:100960001F920F920FB60F9211242F933F938F93E4
:100970009F93AF93BF938091750190917601A09161
:100980007701B09178013091660123E0230F2D3774
:1009900058F50196A11DB11D209366018093750144
:1009A00090937601A0937701B093780180916201D2
:1009B00090916301A0916401B09165010196A11D20
:1009C000B11D8093620190936301A0936401B09381
:1009D0006501BF91AF919F918F913F912F910F90A2
:1009E0000FBE0F901F90189526E8230F0296A11DA9
:1009F000B11DD2CFE9E7F1E01382128288EE93E0D5
:100A0000A0E0B0E084839583A683B7838AE091E079
:100A10009183808385EC90E09587848784EC90E0D7
:100A20009787868780EC90E0918B808B81EC90E0BB
:100A3000938B828B82EC90E0958B848B86EC90E09C
:100A4000978B868B118E128E138E148EE6E1F2E058
:100A5000138212828CE191E0918380838CE0848305
:100A60008FEF85838BE0868385E0878384E08087B2
:100A700083E0818782E08287138614861586168636
:100A8000178681E00C94DF02CF93DF93CDB7DEB7FA
:100A90002C970FB6F894DEBF0FBECDBF789484B507
:100AA000826084BD84B5816084BD85B5826085BD6A
:100AB00085B5816085BD80916E00816080936E00F8
:100AC00010928100809181008260809381008091EA
:100AD000810081608093810080918000816080939B
:100AE00080008091B10084608093B1008091B0005B
:100AF00081608093B00080917A00846080937A0056
:100B000080917A00826080937A0080917A0081607F
:100B100080937A0080917A00806880937A001092A6
:100B2000C100E0918901F0918A0182E08083E09127
:100B30008501F09186011082E0918701F091880192
:100B40008FEC808310929101E0918D01F0918E01E4
:100B500086E08083E0918B01F0918C01808180613F
:100B60008083E0918B01F0918C018081886080838B
:100B7000E0918B01F0918C01808180688083E0910D
:100B80008B01F0918C0180818F7D808382E00E94B7
:100B9000DF028BE3282E8FE1382E98E0892E912CEE
:100BA000A12CB12C29E0422E512C612C712C1886DD
:100BB0001F821A8619861C861B8670E060E0CE01B3
:100BC00007960E9430042F81388581112FC021158E
:100BD000310519F0C9010E94250B18861F821C8659
:100BE0001B861A8619860E94F6004B855C8597FD48
:100BF00025C08A30910511F189831A828A010F5F1D
:100C00001F4FB801CE0107960E943004882359F384
:100C10002F8138858B859C85BE016F5F7F4F820F4A
:100C2000931F0E947D0C1C870B87DDCF1C861B86C3
:100C300060E671E0C9010E947D0CD5CF6F81788597
:100C400089E791E00E94A6001A8219821C821B8209
:100C50001E821D820F81188501151105B9F0EB84E4
:100C6000FC84B701CE0101960E94300429813A81AB
:100C70008111C3C22115310519F0C9010E94250B4C
:100C80001A8219821E821D821C821B8281E00E94B0
:100C9000D902C1010197F1F764E271E0CE0101963A
:100CA0000E941B048823C9F02091670130916801DC
:100CB0004091690150916A012115310541055105A5
:100CC00061F0AAE0B0E00E94E109609367017093CF
:100CD00068018093690190936A0166E271E0CE0138
:100CE00001960E941B048823D1F020916701309166
:100CF00068014091690150916A0121153105410552
:100D0000510509F081C221E030E040E050E020933D
:100D10006701309368014093690150936A0168E26A
:100D200071E0CE0101960E941B048823D1F020912E
:100D30006701309168014091690150916A01211564
:100D400031054105510509F070C282E090E0A0E054
:100D5000B0E08093670190936801A0936901B0931C
:100D60006A016AE271E0CE0101960E941B048823A9
:100D7000D1F0209167013091680140916901509153
:100D80006A01211531054105510509F05FC223E0D3
:100D900030E040E050E020936701309368014093D9
:100DA000690150936A016CE271E0CE0101960E94E4
:100DB0001B048823D1F02091670130916801409194
:100DC000690150916A01211531054105510509F06C
:100DD0004EC284E090E0A0E0B0E080936701909381
:100DE0006801A0936901B0936A016EE271E0CE01DF
:100DF00001960E941B048823D1F020916701309155
:100E000068014091690150916A0121153105410540
:100E1000510509F03DC225E030E040E050E020936C
:100E20006701309368014093690150936A0160E360
:100E300071E0CE0101960E941B048823D1F020911D
:100E40006701309168014091690150916A01211553
:100E500031054105510509F02CC286E090E0A0E083
:100E6000B0E08093670190936801A0936901B0930B
:100E70006A0162E371E0CE0101960E941B0488239F
:100E8000D1F0209167013091680140916901509142
:100E90006A01211531054105510509F01BC227E002
:100EA00030E040E050E020936701309368014093C8
:100EB000690150936A0164E371E0CE0101960E94DA
:100EC0001B048823B1F020916701309168014091A3
:100ED000690150916A01211531054105510509F05B
:100EE0000AC28092670190926801A0926901B09253
:100EF0006A0166E371E0CE0101960E941B0488231B
:100F0000B1F02091670130916801409169015091E1
:100F10006A01211531054105510509F0FDC14092D5
:100F20006701509268016092690170926A0168E3FA
:100F300071E0CE0101960E941B048823D1F010922B
:100F40006B0110926C0110926D0110926E01109263
:100F5000700110927101109272011092730110923F
:100F60006701109268011092690110926A01109253
:100F7000740165E471E0CE0101960E941B04882390
:100F800099F08091670190916801A0916901B091F9
:100F90006A0180936B0190936C01A0936D01B093F3
:100FA0006E0181E08093740163E571E0CE010196EA
:100FB0000E941B04811119C065E571E0CE01019604
:100FC0000E941B04811111C067E571E0CE010196FA
:100FD0000E941B04811109C069E571E0CE010196F0
:100FE0000E941B04882309F444C0809167019091FA
:100FF0006801A0916901B0916A018093700190939A
:101000007101A0937201B093730110926701109265
:1010100068011092690110926A0163E571E0CE01E6
:1010200001960E941B04882319F08FE280936F01C0
:1010300065E571E0CE0101960E941B04882319F03A
:101040008AE280936F0167E571E0CE0101960E940C
:101050001B04882319F08DE280936F0169E571E02C
:10106000CE0101960E941B04882319F08BE2809325
:101070006F0189819A81009711F00E94250B809160
:101080007401882309F44BC0C0907001D0907101A5
:10109000E0907201F090730180916F018B3209F042
:1010A0004CC180916B0190916C01A0916D01B09148
:1010B0006E018C0D9D1DAE1DBF1D80936701909329
:1010C0006801A0936901B0936A01B701A60189E79D
:1010D00091E00E94960360916F0189E791E00E9480
:1010E000860140916B0150916C0160916D0170918E
:1010F0006E0189E791E00E9496036BE571E089E754
:1011000091E00E94870340916701509168016091CE
:10111000690170916A0189E791E00E949603E1E01C
:10112000809129028111E0E0E195F0E0EA5EFD4F57
:10113000848980680E94D9024091700150917101A8
:10114000609172017091730186E192E00E949603B2
:1011500041E060916F0186E192E00E948602409139
:101160006B0150916C0160916D0170916E0186E18F
:1011700092E00E94960380917401882391F06DE5BE
:1011800071E086E192E00E948703409167015091EF
:1011900068016091690170916A0186E192E00E94A4
:1011A0009603E0912902E23008F009C1E150F0E035
:1011B000EA5EFD4F848980680E94D90240916701F0
:1011C000509168016091690170916A0186E192E035
:1011D0000E9496038F819885009711F00E94250B3D
:1011E00080E090E0892B09F4E2CC0E945001882332
:1011F00009F4CFCC0E940000CCCCFE82ED82B80175
:10120000C9010E947D0C42CDAAE0B0E00E94E10934
:101210006F5F7F4F8F4F9F4F60936701709368019F
:101220008093690190936A017ACDAAE0B0E00E94B0
:10123000E1096E5F7F4F8F4F9F4F609367017093FF
:1012400068018093690190936A018BCDAAE0B0E0B8
:101250000E94E1096D5F7F4F8F4F9F4F6093670141
:10126000709368018093690190936A019CCDAAE014
:10127000B0E00E94E1096C5F7F4F8F4F9F4F6093FA
:101280006701709368018093690190936A01ADCD05
:10129000AAE0B0E00E94E1096B5F7F4F8F4F9F4F44
:1012A00060936701709368018093690190936A016C
:1012B000BECDAAE0B0E00E94E1096A5F7F4F8F4F88
:1012C0009F4F6093670170936801809369019093C9
:1012D0006A01CFCDAAE0B0E00E94E109695F7F4FCB
:1012E0008F4F9F4F609367017093680180936901EE
:1012F00090936A01E0CDAAE0B0E00E94E109685F46
:101300007F4F8F4F9F4F6093670170936801809369
:10131000690190936A01EDCDAAE0B0E00E94E10975
:10132000675F7F4F8F4F9F4F609367017093680196
:101330008093690190936A01FACD8D3289F480918E
:101340006B0190916C01A0916D01B0916E01A701AC
:101350009601281B390B4A0B5B0BDA01C901ADCE94
:101360008A32A9F420916B0130916C0140916D019A
:1013700050916E01C701B6010E94320A6093670165
:10138000709368018093690190936A019ECE8F32B9
:1013900009F09BCE20916B0130916C0140916D0161
:1013A00050916E01C701B6010E94640A2093670143
:1013B000309368014093690150936A0186CEE1E061
:1013C000F6CE0E94230AA59F900DB49F900DA49F76
:1013D000800D911D112408952F923F924F925F929C
:1013E0006F927F928F929F92AF92BF92CF92DF9235
:1013F000EF92FF920F931F93CF93DF93CDB7DEB79A
:10140000CA1BDB0B0FB6F894DEBF0FBECDBF09942D
:101410002A88398848885F846E847D848C849B8484
:10142000AA84B984C884DF80EE80FD800C811B8192
:10143000AA81B981CE0FD11D0FB6F894DEBF0FBEC1
:10144000CDBFED010895A29FB001B39FC001A39F3E
:10145000700D811D1124911DB29F700D811D1124ED
:10146000911D0895DB018F939F930E94E109BF9125
:10147000AF91A29F800D911DA39F900DB29F900DE3
:1014800011240895A1E21A2EAA1BBB1BFD010DC059
:10149000AA1FBB1FEE1FFF1FA217B307E407F50724
:1014A00020F0A21BB30BE40BF50B661F771F881F00
:1014B000991F1A9469F760957095809590959B0196
:1014C000AC01BD01CF010895052E97FB1EF40094D9
:1014D0000E947B0A57FD07D00E94420A07FC03D0F6
:1014E0004EF40C947B0A50954095309521953F4FD2
:1014F0004F4F5F4F089590958095709561957F4F00
:101500008F4F9F4F0895EE0FFF1F0590F491E02D30
:1015100009940F931F93CF93DF938230910510F4BA
:1015200082E090E0E0913002F091310230E020E082
:10153000B0E0A0E0309799F42115310509F44AC0D4
:10154000281B390B24303105D8F58A819B81611520
:10155000710589F1FB0193838283FE0111C04081F3
:1015600051810281138148175907E0F04817590744
:1015700099F4109761F012960C93129713961C939E
:101580003296CF01DF91CF911F910F910895009373
:10159000300210933102F4CF2115310551F042177A
:1015A000530738F0A901DB019A01BD01DF01F80101
:1015B000C1CFEF01F9CF9093310280933002CDCFAC
:1015C000FE01E20FF31F8193919322503109398379
:1015D0002883D7CF20912E0230912F02232B41F464
:1015E000209102013091030130932F0220932E02AB
:1015F00020910001309101012115310541F42DB7F1
:101600003EB74091040150910501241B350BE09138
:101610002E02F0912F02E217F307A0F42E1B3F0BCE
:101620002817390778F0AC014E5F5F4F2417350754
:1016300048F04E0F5F1F50932F0240932E0281936C
:1016400091939FCFF0E0E0E09CCFCF93DF930097A2
:10165000E9F0FC01329713821282A0913002B0911E
:101660003102ED0130E020E01097A1F420813181BA
:10167000820F931F20912E0230912F0228173907D5
:1016800009F061C0F0932F02E0932E02DF91CF9119
:101690000895EA01CE17DF07E8F54A815B819E01D4
:1016A00041155105B1F7E901FB83EA83499159914D
:1016B000C40FD51FEC17FD0761F48081918102965C
:1016C000840F951FE90199838883828193819B838D
:1016D0008A83F0E0E0E012968D919C911397009739
:1016E000B9F52D913C911197CD010296820F931F70
:1016F00020912E0230912F022817390739F63097A2
:1017000051F51092310210923002B0932F02A09343
:101710002E02BCCFD383C28340815181840F951F99
:10172000C817D90761F44E5F5F4F88819981480FD0
:10173000591F518340838A819B8193838283211522
:10174000310509F0B0CFF0933102E09330029ECF23
:10175000FD01DC01C0CF13821282D7CFB0E0A0E040
:10176000E4EBFBE00C94EE098C01009751F4CB0103
:101770000E94890A8C01C801CDB7DEB7E0E10C9464
:101780000A0AFC01E60FF71F9C0122503109E217FB
:10179000F30708F49DC0D901CD91DC911197C617CC
:1017A000D70798F0C530D10530F3CE0104978617DE
:1017B000970708F3C61BD70B2297C193D1936D935C
:1017C0007C93CF010E94250BD6CF5B01AC1ABD0ADA
:1017D0004C018C0E9D1EA0913002B0913102512C13
:1017E000412CF12CE12C109731F580912E02909133
:1017F0002F028815990509F05CC04616570608F0B7
:1018000058C08091000190910101009741F48DB77B
:101810009EB74091040150910501841B950BE81778
:10182000F90708F055C0F0932F02E0932E02F9015A
:1018300071836083A0CF8D919C91119712966C90CB
:10184000129713967C901397A815B90559F56C015A
:1018500042E0C40ED11CCA14DB0420F1AC014A19C9
:101860005B09DA011296159780F0628273825183C8
:101870004083D9016D937C93E114F10471F0D70199
:101880001396FC93EE93129776CF22968C0F9D1FA2
:10189000F90191838083F301EFCFF0933102E0935C
:1018A000300269CF4816590608F42C017D01D30196
:1018B0009ACFCB010E94890A7C01009749F0AE01C2
:1018C000B8010E946B0CC8010E94250B870153CF01
:1018D00010E000E050CFFB01DC0102C001900D924E
:1018E00041505040D8F70895FB01DC018D910190E3
:1018F00080190110D9F3990B0895FB01DC010190C7
:101900000D920020E1F70895F894FFCF0000320215
:101910008000000000008601A600D300D30144012E
:10192000E2003601000000008103A60040023F02F1
:10193000300031003200330034003500360037000B
:1019400038003900627574746F6E5F636C65617224
:1019500000627574746F6E5F657175616C730041C0
:0E196000004200430044003D00203D200000F6
:107E0000112484B714BE81FFF0D085E080938100F7
:107E100082E08093C00088E18093C10086E0809377
:107E2000C20080E18093C4008EE0C9D0259A86E02C
:107E300020E33CEF91E0309385002093840096BBD3
:107E4000B09BFECF1D9AA8958150A9F7CC24DD24C4
:107E500088248394B5E0AB2EA1E19A2EF3E0BF2EE7
:107E6000A2D0813461F49FD0082FAFD0023811F036
:107E7000013811F484E001C083E08DD089C08234E0
:107E800011F484E103C0853419F485E0A6D080C0E4
:107E9000853579F488D0E82EFF2485D0082F10E0AE
:107EA000102F00270E291F29000F111F8ED06801E7
:107EB0006FC0863521F484E090D080E0DECF843638
:107EC00009F040C070D06FD0082F6DD080E0C81688
:107ED00080E7D80618F4F601B7BEE895C0E0D1E017
:107EE00062D089930C17E1F7F0E0CF16F0E7DF06D8
:107EF00018F0F601B7BEE89568D007B600FCFDCFD4
:107F0000A601A0E0B1E02C9130E011968C91119780
:107F100090E0982F8827822B932B1296FA010C0160
:107F200087BEE89511244E5F5F4FF1E0A038BF0790
:107F300051F7F601A7BEE89507B600FCFDCF97BE46
:107F4000E89526C08437B1F42ED02DD0F82E2BD052
:107F50003CD0F601EF2C8F010F5F1F4F84911BD097
:107F6000EA94F801C1F70894C11CD11CFA94CF0C13
:107F7000D11C0EC0853739F428D08EE10CD085E9AC
:107F80000AD08FE07ACF813511F488E018D01DD067
:107F900080E101D065CF982F8091C00085FFFCCF94
:107FA0009093C60008958091C00087FFFCCF809118
:107FB000C00084FD01C0A8958091C6000895E0E648
:107FC000F0E098E1908380830895EDDF803219F02E
:107FD00088E0F5DFFFCF84E1DECF1F93182FE3DFCA
:107FE0001150E9F7F2DF1F91089580E0E8DFEE27F6
:047FF000FF270994CA
:027FFE00040479
:00000001FF
